:100000000C9492020C94D9020C94D9020C94D9024B
:100010000C94D9020C94D9020C94D9020C94D902F4
:100020000C94D9020C94D9020C9417230C94EA2353
:100030000C94F6190C94D9020C94D9020C94D902A0
:100040000C94D9020C94D9020C94D9020C94D902C4
:100050000C94D9020C945E1A0C94D9020C94D90217
:100060000C94D9020C94D9020C94D9020C94D902A4
:100070000C94D9020C94D9020C94D9020C94D90294
:100080000C94D9020C94D9020C94D9020C94D90284
:100090000C94D9020C94D9020C94D9020C94D90274
:1000A0000C94D9020C94D9020C94D90256420943FB
:1000B0005741500014004F003670387001003770FF
:1000C0003970357001003A70317034703B703070A7
:1000D0005601010057014B0001004E0001000100D4
:1000E0000100010001000100010001000100010008
:1000F00001000100010001000100010001000100F8
:1001000001000100010001000100010001000100E7
:1001100001000100010001000100010001000100D7
:1001200001000100010001000100010001000100C7
:1001300001000100010001000100010001000100B7
:1001400001000100010001000100010001000100A7
:100150000100010001000100010001000100010097
:10016000010001000100010001000100643214647B
:100170003214783C1E1E140A050000000001010123
:100180000202030405050607090A0B0C0E0F1112E3
:10019000141517191B1D1F212325282A2C2F313434
:1001A00036393B3E414346494C4F5255585A5D61A2
:1001B00064676A6D707376797C7F8386898C8F9291
:1001C00095989B9EA2A5A7AAADB0B3B6B9BCBEC177
:1001D000C4C6C9CBCED0D3D5D7DADCDEE0E2E4E6C4
:1001E000E8EAEBEDEEF0F1F3F4F5F6F8F9FAFAFBE4
:1001F000FCFDFDFEFEFEFFFFFFFFFFFFFFFEFEFE1C
:10020000FDFDFCFBFAFAF9F8F6F5F4F3F1F0EEED8A
:10021000EBEAE8E6E4E2E0DEDCDAD7D5D3D0CECB19
:10022000C9C6C4C1BEBCB9B6B3B0ADAAA7A5A29E8B
:100230009B9895928F8C898683807C797673706D7C
:100240006A6764615D5A5855524F4C494643413E76
:100250003B393634312F2C2A282523211F1D1B1909
:1002600017151412110F0E0C0B0A090706050504C9
:100270000302020101010000000000000000010172
:100280000101010101010102020202020202020255
:100290000303030303030303040404040404050524
:1002A00005050506060606060707070708080808E5
:1002B0000909090A0A0A0A0B0B0B0C0C0C0D0D0D8F
:1002C0000E0E0F0F0F101011111112121313141420
:1002D000151516161717181819191A1A1B1C1C1D94
:1002E0001D1E1F1F202021222223242525262727EB
:1002F00028292A2B2B2C2D2E2F2F30313233343519
:1003000036363738393A3B3C3D3E3F404142434424
:10031000464748494A4B4C4D4F50515253555657FA
:10032000585A5B5C5E5F606263646667696A6C6DA5
:100330006E707173747678797B7C7E80818384861D
:10034000888A8B8D8F91929496989A9B9D9FA1A35A
:10035000A5A7A9ABADAFB1B3B5B7B9BBBDBFC1C45C
:10036000C6C8CACCCFD1D3D6D8DADCDFE1E4E6E820
:10037000EBEDF0F2F5F7FAFCFF12036B0065007984
:100380000062006F006100720064000000160371DB
:10039000006D006B006200750069006C0064006510
:1003A00000720000000403090409026D000401004A
:1003B000A0FA090400000103010100092111010054
:1003C000012240000705810308000A090401000119
:1003D00003010200092111010001224D00070582DD
:1003E0000308000A090402000103000000092111AA
:1003F0000100012236000705830308000A090403EF
:100400000001030000000921110100012239000749
:100410000584032000011201100100000008EDFE18
:10042000606001000102000105010906A101050744
:1004300019E029E7150025019508750181020508D5
:100440001901290595057501910295017503910121
:100450000507190029F71500250195F87501810296
:10046000C005010980A10185021601002603001ABA
:1004700081002A8300751095018100C0050C0901D7
:10048000A1018503160100269C021A01002A9C0284
:10049000751095018100C005010902A1010901A1A2
:1004A000000509190129051500250195057501812A
:1004B0000295017503810105010930093115812576
:1004C0007F95027508810609381581257F9501758C
:1004D000088106050C0A38021581257F95017508EB
:1004E0008106C0C005010906A101050719E029E739
:1004F0001500250195087501810295017508810196
:1005000005081901290595057501910295017503E5
:1005100091010507190029FF150026FF00950675B2
:10052000088100C011241FBECFEFDAE0DEBFCDBFCF
:1005300004B603FE27C08091300290913102A09151
:100540003202B09133028730904BA740B04BD1F4C8
:100550001092300210923102109232021092330245
:1005600014BE84B7877F84BF0FB6F894A895809196
:100570006000886180936000109260000FBEE0E030
:10058000F8E3099511E0A0E0B1E0E0E8FEE402C084
:1005900005900D92AE32B107D9F722E0AEE2B1E09C
:1005A00001C01D92A033B207E1F70E9464200C94B1
:1005B0003E270C94000090E080E00895089508958F
:1005C00081E00895089581E008950C94E0020E946E
:1005D00055122FEF84E39CE0215080409040E1F7DA
:1005E00000C000000C94831AFF920F931F93CF93C7
:1005F000DF938C01FC01C081D18180916701811161
:1006000048C08281882309F43FC0CE010E94BC17F4
:10061000F82E682FCE010E946217BE018F2D0E9416
:10062000CE04EC01B8010E94E502882309F478C0E9
:10063000B801CE010E94FE06882309F471C0C633BA
:10064000F0E7DF0709F484C0C0F5C53190E7D907AA
:1006500028F5C230E0E7DE0708F099C0C115F0E7E1
:10066000DF0709F458C0C130D04709F460C081E009
:100670008093300180933101C801DF91CF911F91A8
:100680000F91FF900C94E302CE010E949117F82E77
:10069000C4CFCE010E94BC17BE01C1CFC43390E7C6
:1006A000D90709F44EC0C533D04709F7F801828154
:1006B0008823B1F10E94B70A33C0CA33F0E7DF07DD
:1006C00009F457C070F4F8018281C833F0E7DF07FE
:1006D00009F44AC008F443C0882311F10E94FB09C1
:1006E0001FC0CC33E0E7DE0709F4D5C008F448C0EA
:1006F000CD33D04709F0BBCFF8018281882309F4BC
:10070000F1C0109231010E94281A90932F0180931A
:100710002E0180E2CDC0F801828181110E94E702A2
:1007200080E0DF91CF911F910F91FF900895F80124
:1007300082818823A9F38091D20181608093D201C4
:10074000EFCFF8018281882359F30E94C10AE8CFD4
:10075000F8018281882321F30E94AC09E1CF88232C
:10076000F9F20E94C409DCCF8823D1F20E94E30988
:10077000D7CFF8018281882399F20E94130AD0CF43
:10078000F8018281882361F20E942B0AC9CFF80107
:100790008281882309F470CF0E947919811102C0E7
:1007A0000E9453190E94961990E090932102809321
:1007B0002002FE01E350F047809120028160E23187
:1007C000F105C8F4EA51FC4F0C94F026F803040438
:1007D00008040C041004140418041C042004240449
:1007E00028042C043004340438043C044004440439
:1007F00080912002826080932002809120020E94DA
:100800009A190E9455128CCF809120028460F3CFF8
:10081000809120028860EFCF809120028061EBCF31
:10082000809120028062E7CF809120028064E3CF34
:10083000809120028068DFCF809120028460EACF1F
:10084000809120028E7FD7CF809120028D7FD3CFE1
:10085000809120028B7FCFCF80912002877FCBCFEA
:10086000809120028F7EC7CF809120028F7DC3CFE1
:10087000809120028F7BBFCF809120028F77BBCFEA
:10088000809120028B7FEACF90912002892F97FBE5
:1008900087F98058B0CFF8018281882361F01092E7
:1008A00030010E94281A90932F0180932E0182E03C
:1008B0000E94BF0F35CF8091300181110FC0809110
:1008C0002E0190912F010E94341A883C910530F43A
:1008D00086E20E94940E86E20E94700F82E00E94DF
:1008E000C60F1ECF8091310181110FC080912E0162
:1008F00090912F010E94341A883C910530F487E2D0
:100900000E94940E87E20E94700F80E2E8CF0C9460
:100910004F07269A2E988FEF9FEF90938700809332
:10092000860082E28093800089E1809381000C94AC
:10093000191E0E9489040C944D07282F2E9880912F
:100940008000211108C08F7D8093800010928B0061
:1009500010928A000895806280938000233039F4D9
:100960008FEF9FEF90938B0080938A00089583E030
:1009700090E0821B9109880F991F2FEF3FEF02C073
:10098000369527958A95E2F730938B0020938A005D
:1009900008950C94E2020C94C9040895972F70E016
:1009A00023E0929F600D711D1124FB0196E0899F49
:1009B000E00DF11D1124EE0FFF1FE455FF4F85914F
:1009C00094910895FC01EE0FFF1FE459FE4F8591AD
:1009D000949108950E94CE040E947D06811520E521
:1009E000920708F040C0811530E4930708F0FAC080
:1009F000883E910518F5803E910508F07DC1883A42
:100A0000910580F4853A910508F087C08130910501
:100A100009F472C120F08430910508F06DC190E0B6
:100A200080E008958D3B910508F482C0803C9105DB
:100A3000B0F3805C91090E94E2040895811540E2C0
:100A4000940750F4811521E0920708F055C1803FCA
:100A5000910528F390650895811530E3930708F018
:100A6000BEC09F70E8CF811545E5940760F58115FC
:100A700024E5920708F0E5C0811532E5930750F4AC
:100A8000811541E5940708F4B0C0982F8827816F3D
:100A9000906A0895282F26952695AC014370552716
:100AA0008115934508F0BEC081E090E002C0880F38
:100AB000991F4A95E2F740E2249F90011124822B6E
:100AC000932B9C680895803340E7940798F4803214
:100AD00020E7920708F0BFC0811536E5930708F4B8
:100AE000B5C09C0130569F702115304108F097CF5A
:100AF00090620895813320E7920709F4B3C008F4A7
:100B0000AEC0823340E7940709F4AFC08333904707
:100B100009F085CF80E093ED0895853A910509F4B9
:100B2000A7C0863A910509F0A6C082E890E408952E
:100B3000883A910509F4A2C0893A910509F4A1C047
:100B40008A3A910509F4A0C08B3A910509F49FC037
:100B50008C3A910509F49EC08B3B910509F49DC028
:100B60008C3B910509F49CC08D3A910509F49BC01A
:100B7000803B910509F49AC08E3A910509F499C019
:100B80008F3A910509F498C0813B910509F497C00B
:100B9000823B910509F496C0833B910509F495C009
:100BA000843B910509F494C0853B910509F493C0F9
:100BB000863B910509F492C0873B910509F491C0E9
:100BC000883B910509F490C0893B910509F48FC0D9
:100BD0008A3B910509F48EC080E094E4089599273A
:100BE000906C08959F70906A08959C0154E036952A
:100BF00027955A95E1F7922F9370482F437021E083
:100C000030E002C0220F331F4A95E2F73C68392BCF
:100C100086958695837040E2849FC0011124822BC3
:100C2000932B089581E090E002C0880F991F4A95A8
:100C3000E2F740E2249F90011124822B932B9A68C3
:100C40000895982F8827846F906A0895982F882791
:100C500088279F714DCF80529047946D089580E012
:100C600091ED089580E090ED089580E092ED089573
:100C700081E890E4089583E890E4089582EE94E496
:100C8000089589EE94E408958AEE94E4089585EB3E
:100C900094E4089586EB94E4089583EB94E4089536
:100CA00084EB94E4089587EB94E408958CEC94E449
:100CB00008958DEC94E4089583E895E408958AE816
:100CC00095E4089582E995E4089584E995E408950A
:100CD00081E296E4089583E296E4089584E296E43E
:100CE000089585E296E4089586E296E4089587E201
:100CF00096E408958AE296E408958238910549F1D0
:100D0000B0F48133910509F45CC048F4893291054F
:100D100009F452C08A32910509F458C00895853308
:100D2000910509F444C08933910599F00895833EF3
:100D3000910531F138F4803E910591F0823E9105A4
:100D4000B1F00895863E910511F1873E910541F17C
:100D50000895209120022370C9F080EE90E008955C
:100D60002091200220FF12C089E390E00895209195
:100D7000200222FF0BC024FF2EC090E080E00895E7
:100D80002091200222FD2AC024FDF7CF0895209152
:100D9000200223FFFBCF24FDF0CF87EE90E00895E3
:100DA0002091200223FFF0CF86EE90E0089520915D
:100DB000200225FD16C008952091200225FD14C0B3
:100DC00008952091200226FD12C00895209120024E
:100DD00026FD10C0089583EE90E0089582EE90E025
:100DE000089589E290E0089585E390E008958AE20D
:100DF00090E0089581E390E0C9CF08950F931F9389
:100E0000CF938C01FB018281811106C0C1E08C2F40
:100E1000CF911F910F910895C0913F01C11125C03D
:100E20000531104799F70E94FD0681E080933F014C
:100E30000E94281A90933E0180933D011092320146
:100E40001092340110923301109236011092350144
:100E5000109238011092370110923A011092390124
:100E600010923C0110923B01D2CF80913D019091B4
:100E70003E010E94341A883C910540F6809132016F
:100E8000E82FF0E0EE0FFF1FED5CFE4F11830083B3
:100E90008F5F80933201C0E0BACF0C94DE020C94D5
:100EA000DF02CF93DF9385B7806885BF85B7806801
:100EB00085BF5098589A54985C9AA4E1B1E047E1F4
:100EC00051E0C1E0D0E08D91E82FE295EF70F0E0C5
:100ED00061A18F709E0101C0220F8A95EAF7922FBF
:100EE0009095962391A382A1822B82A34A175B0738
:100EF00051F710924201109240011092430110925A
:100F00004101DF91CF910C9499046F927F928F925F
:100F10009F92AF92BF92CF92DF92EF92FF920F9388
:100F20001F93CF93DF93C0E4D1E007E111E099E193
:100F3000E92E91E0F92ECC24C394D12CBB24B39498
:100F4000A8801882D8018D918D01E82FE295EF706D
:100F5000F0E091A18F70A60101C0440F8A95EAF7D5
:100F6000892F842B81A382A1842E8094882182A33F
:100F7000B0EABA95F1F784E1682E81E0782E90E02E
:100F800080E0D3013D913D01632F62956F7070E069
:100F9000DB0190962C9198803F70B60101C0660FDE
:100FA0003A95EAF7622320E031F42C2D082E01C097
:100FB000220F0A94EAF729292883019683309105A4
:100FC00001F781A1882181A382A1482B42A38881B6
:100FD000A81641F0B09244010E94281A909346014D
:100FE000809345012196E016F10609F0A9CF809182
:100FF0004401882391F080914501909146010E941F
:10100000341A069750F080914001809342018091FC
:10101000410180934301109244010E94870481E0C2
:10102000DF91CF911F910F91FF90EF90DF90CF90C4
:10103000BF90AF909F908F907F906F900895E82F12
:10104000F0E0EE5BFE4F80810895089535B1242FC6
:101050002095232335B1432B3FB7F894FC01680F4B
:10106000791FE617F70711F43FBF0895819198E0C3
:1010700045B9000000C087FF25B9880F000000C0F7
:1010800000C000C025B900C09A9591F7EACF24B1FD
:10109000242B24B99B01220F331F620F731F0E9460
:1010A000260887EC90E00197F1F700C00000089552
:1010B00044E00C944708CF92DF92EF92FF920F9397
:1010C0001F93CF93DF93E901662309F466C0E42EF2
:1010D000F12CEFEFF0E0E61BF109EE9D8001EF9DB2
:1010E000100DFE9D100D1124212FE12FFF27EE1A68
:1010F000FF0A5CE3C52ED12CB6010E94C826FB0175
:10110000BC01E69EC001E79E900DF69E900D112455
:10111000B6010E94C826E230F10589F168F4812FFA
:10112000262F210F309781F0242F461B319761F035
:1011300080E020E040E008C0E430F10551F128F102
:10114000842F861B3597A1F7E42FF0E0E758FD4F79
:101150004491E22FF0E0E758FD4F9491E82FF0E042
:10116000E758FD4FE49149839883EA83DF91CF915B
:101170001F910F91FF90EF90DF90CF900895862FF1
:10118000810FE42F412F2E2FDFCFE42FE61B842F7A
:10119000F9CF842F462F410FD7CF842F242FD4CFC0
:1011A00088E090E00C94FE26AB01BC0188E090E062
:1011B0000C941C27EFEFF1E083E080831092000293
:1011C0008FEF828383836091FF0170910002809191
:1011D0000102909102020C94D4088091FF01E7E093
:1011E000F2E080FF06C067E070E087E092E00C94D8
:1011F0005808118210821282339682E0EC31F8078F
:10120000C1F7F1CFE7E0F2E0818360834283339658
:1012100092E0EC31F907C1F70C94ED08EF92FF92E0
:101220000F931F93CF93DF9300D01F92CDB7DEB7FC
:10123000182FE92EF62E042F8091FF0190910002C5
:10124000A0910102B09102028093030290930402E4
:10125000A0930502B09306028091FF0180FF1FC09A
:101260009E012F5F3F4F812F9E2D0E945B08809132
:10127000030210FB87F98093030216958091040204
:101280008078812BE0FA87F980930402F0920502BE
:10129000009306024B8169818A810E9402090F90A6
:1012A0000F900F90DF91CF911F910F91FF90EF90D2
:1012B00008950F931F93CF93DF93EC01062F142F04
:1012C0009091FF0190FF43C0892F8E77823021F5E6
:1012D000CE010E940E098091FF01C0FB87F9809327
:1012E000FF01C695809100028078C82BD0FBC7F91A
:1012F000C093000200930102109302026091FF016B
:10130000709100028091010290910202DF91CF91D1
:101310001F910F910C94D408892F86958F732EE31B
:10132000280F2F73243018F410910202D4CF865C5A
:101330008F73893080F6991F9927991FD0910002E9
:10134000CD2FCC0FC92BD7FBDD27D0F9C4CFDF9130
:10135000CF911F910F910895EFEFF1E02081221FAF
:101360002227221F30910002432F440F842F822B0B
:1013700037FB992790F9089668E671E00E94DC2611
:10138000438162810C9459092091FF01221F222779
:10139000221F30910002432F440F842F822B37FBF2
:1013A000992790F98830910540F4805A9E4F4091DA
:1013B0000202609101020C945909089768E671E0F5
:1013C0000E94DC26F4CF60910102683F90F4685FD0
:1013D0008091FF01881F8827881F90910002292F84
:1013E000220F97FB992790F940910202822B0C94CF
:1013F00059096FEFEDCF60910102683090F06850AD
:101400008091FF01881F8827881F90910002292F53
:10141000220F97FB992790F940910202822B0C949E
:10142000590960E0EDCF40910202483F90F4485FD7
:101430008091FF01881F8827881F90910002292F23
:10144000220F97FB992790F960910102822B0C944F
:1014500059094FEFEDCF40910202483090F04850CB
:101460008091FF01881F8827881F90910002292FF3
:10147000220F97FB992790F960910102822B0C941F
:10148000590940E0EDCF9091FF0190FF3BC091786A
:10149000811126C092609093FF016091FF017091CD
:1014A000000280910102909102020E94D408809172
:1014B000FF01982F9E779230D9F410925C01881F1B
:1014C0008827881F90910002292F220F97FB9927C8
:1014D00090F94091020260910102822B0C9459090B
:1014E000893110F09063D7CF8F73880F982BD3CFAB
:1014F000982F9695925C9F73963108F791E09093A0
:101500005C01DDCF08958091D20181608093D2018A
:1015100081E080935D010E947919811104C00E94CD
:1015200053190E94DA080E94D0086093FF0170935B
:10153000000280930102909302026E7761F40E9490
:10154000DA080E94D0086093FF0170930002809334
:1015500001029093020281E080935C018091FF017F
:1015600080FF04C086958F730C94430A0895809180
:10157000FF0186958F738F5F893108F081E00C94AD
:10158000430A9091FF01892F8E7F90FF81608093A5
:10159000FF016091FF017091000280910102909122
:1015A00002020E94D4088091FF0180FF04C086954A
:1015B0008F730C94430A10925C012FEF80E792E046
:1015C000215080409040E1F700C000000C94ED08ED
:1015D000CF93C82F80915A0190915B010E94341AD9
:1015E000EC2FF0E0EB58FE4FE491E817190609F0F4
:1015F00010F50E94281A90935B0180935A01E091A4
:101600005901F0E0E758FE4F44918091FF01881F97
:101610008827881F90910002292F220F97FB992776
:1016200090F960910102822B0E940E09809159016C
:101630008F5F80935901CF910895CF93C82F8091E8
:101640005701909158010E94341AEC2FF0E0EE58A7
:10165000FE4FE491E817190609F0E8F40E94281AF1
:1016600090935801809357014091020260910102CA
:1016700080915501909156010E940E09809155016B
:1016800090915601019668E671E00E94C8269093F9
:10169000560180935501CF910895DF92EF92FF920A
:1016A0000F931F93CF93DF93D82E80915301909186
:1016B00054010E94341AED2DE695F0E0EE58FE4FED
:1016C000E491E817190609F0A8F50E94281A9093EA
:1016D00054018093530107E012E0D0E0C0E088E6B7
:1016E000E82EFF24F39480915101909152018C0FC8
:1016F0009D1FB7010E94C826980140910202609187
:1017000001020E945B08E3960D5F1F4FC53681E022
:10171000D80749F70E94ED0880915101909152013C
:10172000D0FE10C00196B7010E94C82690935201C6
:1017300080935101DF91CF911F910F91FF90EF9016
:10174000DF9008950197F2CFAF92BF92CF92DF92D0
:10175000EF92FF920F931F93CF93DF93C82FFF2435
:10176000FA9480FD02C0FF24F39480914F01909180
:1017700050010E94341AC695EC2FF0E0E159FE4F5B
:10178000E491E817190611F008F053C00E94281AD6
:101790009093500180934F01C7E0D2E010E000E049
:1017A00097E0C92ED12C198218821A8287E0A82EC0
:1017B000B12CE12C80914E018E0D87FD895F082EA2
:1017C000000C990B08171907E9F4209102022A9DD1
:1017D000C0012B9D900D1124B6010E94DC26462FDE
:1017E0008091FF01881F8827881F90910002592F40
:1017F000550F97FB992790F99E0160910102852B67
:101800000E945B08EF0C81E0A81AB10899F60F5FFF
:101810001F4F23960730110531F60E94ED08809185
:101820004E0191E0F91212C081110EC086E0809342
:101830004E01DF91CF911F910F91FF90EF90DF90BC
:10184000CF90BF90AF9008958150F1CF90E0019676
:10185000B8010E94DC26EBCFBF92CF92DF92EF92CD
:10186000FF920F931F93CF93DF93CDB7DEB76597AA
:101870000FB6F894DEBF0FBECDBF182F80914C017C
:1018800090914D010E94341AE12FF0E0E459FE4F8F
:10189000E491E817190611F008F07AC00E94281A9E
:1018A00090934D0180934C018E010F5F1F4FF12CDF
:1018B000E12C6801D80111961C9211971C92129686
:1018C0001C92B12C9091000180914B01B99E800D2A
:1018D000112487300CF086E087FD80E0082E000C94
:1018E000990BE816F906A1F48091FF01881F88275B
:1018F000881F90910002592F550F97FB992790F957
:1019000098014091020260910102852B0E945B08C0
:10191000B394B7E0BB12D6CFEFEFEE1AFE0A0D5F1D
:101920001F4FF7E0EF16F10429F627E032E009E057
:1019300010E057E0E52EF12CC801B7010E94DC262B
:10194000FC01EE0FFF1FE80FF91FEC0DFD1D81815B
:10195000D90111968C93119780818C938281129674
:101960008C930F5F1F4F2D5F3F4F0031110521F703
:101970000E94ED089091000180914B019130E1F4BB
:101980008A3FB4F489EF80934B018FEF809300017D
:1019900065960FB6F894DEBF0FBECDBFDF91CF9135
:1019A0001F910F91FF90EF90DF90CF90BF9008951F
:1019B000815080934B01ECCF8E302CF08DE08093E2
:1019C0004B0181E0E3CF8F5FF4CFFF920F931F9322
:1019D000CF93DF938091490190914A010E94341A7C
:1019E000883E9340C8F10E94281A90934A01809340
:1019F0004901809147019091480101968170992792
:101A0000909348018093470127E0289F8001299FF8
:101A1000100D1124C7E0D2E080E5F82EC8018170D6
:101A200099279E014091020260910102FC01FE9EF5
:101A3000C001FF9E900D11240E945B08095F1F4F9B
:101A40002396F2E0CC31DF0749F7DF91CF911F9168
:101A50000F91FF900C94ED08DF91CF911F910F91A2
:101A6000FF90089580915C01882371F18091FF01BE
:101A700086958F739EE3980F9F73943018F482506D
:101A80000C94E80A9AE3980F9F73933018F48650E9
:101A90000C941D0B97E3980F9F73963018F48950A0
:101AA0000C944D0B91E3980F9F73963018F48F5060
:101AB0000C94A40B9BE2980F9F73933018F48551FC
:101AC0000C942C0C0C94E50C089590936301809376
:101AD00062010895E0916201F0916301309721F075
:101AE0000190F081E02D099480E00895E091620179
:101AF000F0916301309721F00280F381E02D099489
:101B00000895E0916201F0916301309721F0048023
:101B1000F581E02D099408952091600130916101D3
:101B20002817390771F09093610180936001E0916B
:101B30006201F0916301309721F00680F781E02D7A
:101B40000994089520915E0130915F0128173907AB
:101B500071F090935F0180935E01E0916201F091DA
:101B60006301309721F00084F185E02D09940895F8
:101B700008950C94B80D0E941F1A0E9451070E94EC
:101B8000E81A0E94191E0C94830ABF92CF92DF922A
:101B9000EF92FF920F931F93CF93DF93CDB7DEB7F2
:101BA0002A970FB6F894DEBF0FBECDBF0E948507FF
:101BB00085E6C82E81E0D82E10E000E0B02E802F00
:101BC0000E941F08E82EF601F1906F01F81609F443
:101BD0005DC08091D20181FD0E94250890E080E0E7
:101BE000FE242F2D30E0482FB901082E02C0759534
:101BF00067950A94E2F760FF44C08E83BF8281E05C
:101C000090E06C0102C0CC0CDD1C4A95E2F72E2D51
:101C100030E02C213D21232B09F480E088870E94AD
:101C2000281A8160782F9A8789874E815F8168851D
:101C30008A850E946A0EF801EB59FE4F80818C253F
:101C400080830E946B1D0E946A0D90916401891728
:101C500089F10E946A0D809364012A960FB6F89468
:101C6000DEBF0FBECDBFDF91CF911F910F91FF90CF
:101C7000EF90DF90CF90BF900C94CB0401E010E088
:101C80009DCF01968330910509F0ADCF013011054C
:101C9000A9F78FEF89838A831B820E94281A8160AB
:101CA000782F9D838C8349815A816B818D810E941D
:101CB0006A0EC7CF2A960FB6F894DEBF0FBECDBF0F
:101CC000DF91CF911F910F91FF90EF90DF90CF9018
:101CD000BF900895CF93DF93CDB7DEB72B970FB6A4
:101CE000F894DEBF0FBECDBF4F83588769877A87D0
:101CF0008B871E821D8285E0FE013796DE011196DC
:101D000001900D928A95E1F749815A816B817C811E
:101D10008D819E812B960FB6F894DEBF0FBECDBF8E
:101D2000DF91CF910C940715882309F4D8C082382D
:101D300071F40E946A0D81FDD2C089E30E945C1893
:101D40000E94241989E30E9499180C94241983385D
:101D500059F40E946A0D80FDC2C083E50E945C18A0
:101D60000E94241983E5EFCF843859F40E946A0D4C
:101D700082FDB5C087E40E945C180E94241987E4A4
:101D8000E2CF9CEF980F913A18F40E945C18DDCFD7
:101D900090E2980F983050F4877091E001C0990F4D
:101DA0008A95EAF7892F0E94DB18CFCF9BE5980F21
:101DB000933070F4853A31F0863A39F083E890E058
:101DC0000C948C0D81E890E0FBCF82E890E0F8CF96
:101DD00098E5980F953108F082C0883A09F440C020
:101DE000893A09F440C08A3A09F440C08B3A09F4B0
:101DF00040C08C3A09F440C08B3B09F440C08C3B96
:101E000009F440C08D3A09F440C0803B09F440C059
:101E10008E3A09F440C08F3A09F440C0813B09F47E
:101E200040C0823B09F440C0833B09F440C0843B7E
:101E300009F440C0853B09F440C0863B09F440C02A
:101E4000873B09F440C0883B09F440C0893B09F452
:101E500040C08A3B09F440C090E080E00C94A20DA1
:101E600082EE90E0FBCF89EE90E0F8CF8AEE90E032
:101E7000F5CF85EB90E0F2CF86EB90E0EFCF83EBF0
:101E800090E0ECCF84EB90E0E9CF87EB90E0E6CFF9
:101E90008CEC90E0E3CF8DEC90E0E0CF83E891E034
:101EA000DDCF8AE891E0DACF82E991E0D7CF84E90B
:101EB00091E0D4CF81E292E0D1CF83E292E0CECF25
:101EC00084E292E0CBCF85E292E0C8CF86E292E056
:101ED000C5CF87E292E0C2CF8AE292E0BFCF0895F9
:101EE000882309F44BC0823871F40E946A0D81FF87
:101EF00045C089E30E945C180E94241989E30E946E
:101F000099180C942419833859F40E946A0D80FFA3
:101F100035C083E50E945C180E94241983E5EFCF49
:101F2000843859F40E946A0D82FF28C087E40E9419
:101F30005C180E94241987E4E2CF9CEF980F913A35
:101F4000F0F290E2980F983050F4877091E001C061
:101F5000990F8A95EAF7892F0E94E118D2CF9BE565
:101F6000980F933020F490E080E00C948C0D885A08
:101F7000853120F490E080E00C94A20D0895882330
:101F800021F00E94DB180C9424190895882321F075
:101F90000E94E1180C94241908958F929F92AF9299
:101FA000BF92DF92EF92FF920F931F93CF93DF9335
:101FB0007C01D62FC72FFC01058102950F7012817D
:101FC00011110E94FA180E945518D82E882371F01A
:101FD000112321F180E28D0F883000F182E00E9410
:101FE0003F180E94551891E0D82ED926EC2FE29583
:101FF000EF70F0E0E250F04F0C94F026101010104B
:1020000060106010A210BE103D103D10C9103D10B0
:1020100061116111D411DD113D10FD11D12CE6CFFC
:102020000C2F0F70C07F11F00295007F1123A9F0D3
:10203000002359F080E28D0F883010F0D11109C0D3
:10204000802F0E94DB180E9424198D2F0E94940E6D
:1020500014C0802F0E94EC18F6CF8D2F0E94700FB5
:10206000002359F080E28D0F883010F0D11124C088
:10207000802F0E94E1180E942419DD2009F4C4C1B8
:102080000E94321880FDC0C1F70112820E942C18F4
:102090000E94A616C7010E9410120E942C18DF9100
:1020A000CF911F910F91FF90EF90DF90BF90AF9075
:1020B0009F908F900C94C716802F0E94F218DBCF50
:1020C000FC2FFF70BF2EC07FC03219F0B29480EF9A
:1020D000B822DD2369F0D13029F1112369F1002301
:1020E00059F0F701858180FFB0CF8F70858304C0E0
:1020F000112361F0011104C08B2D0E94BF0FBDCFD1
:102100008B2D0130D1F70E940E19B7CF011106C0F7
:102110000E9411198B2D0E94C60FAFCF013009F418
:10212000ACCFF6CF112321F0063008F0A6CFE4CFD4
:10213000053008F0A2CFEECF002361F38D2F0E946F
:10214000700F9BCF8C2F86958695837069F08130B8
:1021500009F093CF8D2F9C2F9370111102C090E046
:1021600080E00E94A20D89CF8D2F9C2F93701111BA
:1021700002C090E080E00E948C0D7FCF8D2F112354
:1021800029F00E94741C0E94601D77CF0E94DC1C05
:10219000FACF8C2F837009F047C011116ECF2D2F0D
:1021A000229526952770220F220F6D2F6F70862E95
:1021B000912CB12CA12C022E04C0880C991CAA1CB5
:1021C000BB1C0A94D2F760E070E0CB01D4FF0FC0D3
:1021D0006FE070E080E090E004C0660F771F881F1A
:1021E000991F2A95D2F76095709580959095C69520
:1021F000C695C370C23051F080F4682979298A29C4
:102200009B29C13071F00E944F1637CF6829792978
:102210008A299B290E946B1630CF0E944F16C50158
:10222000B4010E94331629CF8695112311F08C2F0B
:102230008170882309F421CF2D2F229526952770B0
:10224000220F220F6D2F6F70862E912CB12CA12C96
:10225000022E04C0880C991CAA1CBB1C0A94D2F73D
:1022600060E070E0CB01D4FF0FC06FE070E080E071
:1022700090E004C0660F771F881F991F2A95D2F738
:102280006095709580959095C695C695C370C2303F
:1022900051F080F4682979298A299B29C13071F08D
:1022A0000E942917EACE682979298A299B290E9448
:1022B0004517E3CE0E942917C501B4010E940D17EE
:1022C000DCCEE0E2ED0FE53108F062C0F0E0E55968
:1022D000FE4E0C94F0268011801180118011801127
:1022E0008011801180118011801180118011801166
:1022F0008011801180118D119B11A211A911B311B0
:10230000DF708C2F8F71112321F00E94A6168D2F64
:10231000F4CE0E94C7168D2FFECE112341F005305A
:1023200008F0ABCE8C2F8F710E94EC16A6CE063033
:1023300008F0A3CEF7CF8C2F8F71112339F00E94B4
:10234000A6169BCE8C2F8F711123C9F30E94C7163E
:1023500094CE112329F08C2F8F710E9491168DCE6F
:102360000E9487168ACE112349F0CF718C2F0E94CC
:10237000A61663E08C2F0E9436187FCE81E00E9463
:102380003F18023008F479CE82E00E943F1875CEE3
:10239000112329F0011159CE8C2F8F71D0CF01114B
:1023A000CDCE8C2F8F71D2CF4C2F4F706D2FC70198
:1023B0000E94DB020E94B01560CE11115ECECF707C
:1023C000C230A9F040F4CC2379F0C13009F055CEE9
:1023D0000E94421E52CEC33069F0C43009F04DCE87
:1023E0008D2F0E94911E49CE0E942A1E46CE0E9429
:1023F0005B1E43CE0E946E1E40CE4C2F4F706D2F41
:10240000C7010E94CD0439CEDF91CF911F910F916A
:10241000FF90EF90DF90BF90AF909F908F900895C6
:102420000F931F93CF93DF93EC01988189812B81C8
:102430003C81232B39F08F3F19F481E09F3F19F045
:1024400080E001C081E080FD17C0CE010E94F4024F
:10245000882391F0688179818A810E9408188C0113
:102460000E9461170E942816B801CE01DF91CF911A
:102470001F910F910C94CD0FDF91CF911F910F9170
:1024800008950E94FA180E940B190E94CD180E940C
:1024900024190E940D1E0E94601D90E080E00E94A1
:1024A0008C0D90E080E00C94A20D0E94E9180C9431
:1024B00041120E94FE17E92FE295EF70E250EE30D4
:1024C000E0F4F0E0EA59FD4E0C94F0267412741218
:1024D0007D127D127F127D127D127D127412741294
:1024E00084127D127D128412803F19F020F4803E08
:1024F00020F481E00895843FE1F380E00895803E78
:10250000C0F3813FD1F7F5CF93FB882780F9089579
:10251000CF93DF9300D000D01F92CDB7DEB70F90DE
:102520000F900F900F900F90DF91CF910895CF9360
:10253000DF9300D000D000D0CDB7DEB726960FB61F
:10254000F894DEBF0FBECDBFDF91CF9108951F93EA
:10255000CF93DF93C091680116E0809169018C13DD
:1025600004C0DF91CF911F910895D0E01C9FF0012E
:102570001D9FF00D1124E659FE4F4081518162816B
:102580007381848195810E9497122196C770E5CF4F
:1025900040919A0150919B0160919C0170919D0125
:1025A00080919E0190919F010C9497121F93CF935D
:1025B000DF9380919F01807FD1F480919C018823DB
:1025C000B1F080916801D0916901B0919A01C091F8
:1025D0009B0140919D0150919E01A1E0BF3F09F0F8
:1025E000A0E0BA016095709516E0D81304C0DF91A1
:1025F000CF911F91089521E04115510521F02A2F17
:10260000CF3F09F020E090E020FD38C0189FF00196
:10261000199FF00D1124E659FE4F21812C132EC075
:1026200020812B132BC02281211128C023813481CA
:102630002417350700F1241B350B283C3105F0F435
:1026400020919F012F70206120939F0126E0289FF9
:10265000F001299FF00D1124E159FE4F80818F7008
:10266000806180838AE991E00E941012DF91CF910E
:102670001F910C94A712260F371FDFCF019687708A
:10268000B4CFAF92BF92CF92DF92EF92FF920F93AF
:102690001F93CF93DF93CDB7DEB761970FB6F89452
:1026A000DEBF0FBECDBF8C0185E0F801DE011D96B7
:1026B00001900D928A95E1F7D8014C9111965C91A9
:1026C00011971296EC9030919A0160919B01809144
:1026D0009D0190919E0121E0009731F06F3F19F428
:1026E00021E03F3F09F020E0B22FB170BB2E20FD6A
:1026F00080C1F801C380D480A0909C01AA2009F475
:1027000027C1C816D906D0F1D601A81BB90BCD0137
:10271000FF24F394883C910508F0F12C80919F01EF
:10272000982F907FFF2009F4CAC0911187C0FE2C1A
:10273000651329C0341327C0E11025C08F70806154
:1027400080939F010E94C8128AE991E00E941012B2
:1027500080919F01F80185838F2D61960FB6F894C3
:10276000DEBF0FBECDBFDF91CF911F910F91FF90C4
:10277000EF90DF90CF90BF90AF90089580959095A7
:102780008C0D9D1DC5CF81E0CD2831F05F3F19F440
:1027900081E04F3F09F080E080FD24C081E08E257C
:1027A000F82FF170DF2E80FF3FC0809168012091EB
:1027B000690136E0821318C04D875E878D859E853E
:1027C0000E94FE17292F22952F70223008F1243005
:1027D00030F59F7009F1D80115969C91907FE1F436
:1027E000FB2CBACF80E0DCCF90E0389FF001399F1E
:1027F000F00D1124E659FE4F6181561306C0608129
:10280000461303C062816E110FC001968770D2CF4C
:102810009F7011F0882321F3805E883008F3C8018F
:102820000E941012BD2CDCCFEE2009F495CF8091D0
:102830009F01816080939F01F12C8ECF651312C0A0
:10284000341310C0E1100EC0F8018583C8010E9446
:10285000101286E0F801AAE9B1E001900D928A9584
:10286000E1F741C04D875E878D859E850E94591294
:10287000882309F4C8C0EE2009F4C5C080919F01E7
:10288000803270F020919A0130919B0138872F831C
:102890001986DB86CA868C87CE0107960E941012A5
:1028A00086E0F801AAE9B1E001900D928A95E1F77E
:1028B0000E94D6120E94C812FF24F3944DCF9111AA
:1028C00015C07C2DD98AC88A6E2D89890E948812EC
:1028D0008AE991E00E94101286E0EAE9F1E0DF0166
:1028E0001D928A95E9F70E94C81236CF651312C06F
:1028F000341310C0E1100EC0F8018583C8010E9496
:102900001012EAE9F1E086E0DF011D928A95E9F70D
:10291000FA2C22CF4D875E878D859E850E945912A5
:10292000882309F470C0EE2009F46DC080919F01E6
:10293000803208F4B5CF20919A0130919B013A83FF
:1029400029831B82DD82CC828E83CE010196A6CFA5
:10295000C816D90638F1F601E81BF90BCF01F12CA6
:10296000883C910508F03DC0FE2CEE2009F44BC0D8
:10297000651326C0341324C080919F0180FD17C0C9
:10298000982F907FA1F0D80115968C931597903FC2
:1029900009F45CCF982F907F905F8F70892B1596EC
:1029A0008C9354CF809590958C0D9D1DD8CF86E04B
:1029B000F801AAE9B1E001900D928A95E1F7CCCE39
:1029C0004D875E878D859E850E945912811168CF43
:1029D00080919F01816080939F01C8010E94101225
:1029E000BBCE7C2DD98AC88A6E2D89890E94881217
:1029F00073CFEE2041F04D875E878D859E850E94C6
:102A0000591281114DCFC8010E94101255CF1F934A
:102A1000CF93DF93CDB7DEB72C970FB6F894DEBF18
:102A20000FBECDBF4F83588769877A878B879C8776
:102A3000CE0107960E944113882309F442C09F816A
:102A400088852A853B85232B39F08F3F19F481E057
:102A50009F3F19F080E001C081E080FD08C04F81F8
:102A6000588569857A858B859C850E94971216E02A
:102A70008091680190916901891709F467C0819F6D
:102A8000C001112486599E4F0E944113882309F4E6
:102A90005DC0E09168011E9FF0011124E659FE4FD0
:102AA0004081518162817381848195810E94971256
:102AB0008091680190E00196877099278093680162
:102AC000D7CF86E0FE013796DE01119601900D9278
:102AD0008A95E1F79F8188852A853B85232B39F0EC
:102AE0008F3F19F481E09F3F19F080E001C081E041
:102AF00080FDBDCF2091690130E0C901019687704A
:102B00009927409168014817190699F096E0929F1D
:102B1000D001939FB00D1124A659BE4FFE013196EE
:102B200001900D929A95E1F7809369010E94A71296
:102B30009ECF0E945512109269011092680186E0A2
:102B4000EAE9F1E0DF011D928A95E9F72C960FB6CC
:102B5000F894DEBF0FBECDBFDF91CF911F910895D6
:102B6000EF92FF920F931F93CF93DF938C01892BEA
:102B700081F0F12CEE24E394E8012196F801849190
:102B8000843770F4843008F05FC08130B1F0823057
:102B9000A1F1DF91CF911F910F91FF90EF900895D8
:102BA000853709F44CC008F43DC09CE7980F903776
:102BB00080F78F770E94700F49C00E5F1F4FFE0194
:102BC000849190E2980F983060F48770FE2D01C0D8
:102BD000FF0F8A95EAF78F2F0E94FD180E94241993
:102BE00002C00E94940E8F2D815030F2EFE9FFE079
:102BF0003197F1F700C00000F7CF0E5F1F4FFE01C5
:102C0000849190E2980F983050F48770FE2D01C0A7
:102C1000FF0F8A95EAF78F2F0E940319DFCF0E94DA
:102C2000700FE1CF0E5F1F4FFE01C491C150D8F26B
:102C30008FE99FE00197F1F700C00000F7CF0E5F2A
:102C40001F4FFE01F490CFCF0E94940E8E01CBCF88
:102C500008956093A9017093AA018093AB019093AA
:102C6000AC010C9441120F931F930091A901109194
:102C7000AA012091AB013091AC01DC01CB01802B8A
:102C8000912BA22BB32B8093A9019093AA01A0931F
:102C9000AB01B093AC011F910F910C9441120F93B3
:102CA0001F930091A9011091AA012091AB013091CD
:102CB000AC01DC01CB0180239123A223B3238093B9
:102CC000A9019093AA01A093AB01B093AC011F910D
:102CD0000F910C9441120F931F930091A901109131
:102CE000AA012091AB013091AC01DC01CB0180271E
:102CF0009127A227B3278093A9019093AA01A093BB
:102D0000AB01B093AC011F910F910C944112109242
:102D1000A5011092A6011092A7011092A8010C948F
:102D2000411241E050E060E070E004C0440F551FE4
:102D3000661F771F8A95D2F74093A5015093A6018D
:102D40006093A7017093A8010C94411241E050E0F8
:102D500060E070E004C0440F551F661F771F8A951E
:102D6000D2F78091A5019091A601A091A701B09101
:102D7000A801842B952BA62BB72B8093A5019093AC
:102D8000A601A093A701B093A8010C94411241E0C1
:102D900050E060E070E004C0440F551F661F771FCD
:102DA0008A95D2F740955095609570958091A501D0
:102DB0009091A601A091A701B091A8018423952329
:102DC000A623B7238093A5019093A601A093A70102
:102DD000B093A8010C94411241E050E060E070E033
:102DE00004C0440F551F661F771F8A95D2F7809144
:102DF000A5019091A601A091A701B091A8018427F7
:102E00009527A627B7278093A5019093A601A093A5
:102E1000A701B093A8010C9441120F931F93009146
:102E2000A5011091A6012091A7013091A801DC0114
:102E3000CB01802B912BA22BB32B8093A5019093D8
:102E4000A601A093A701B093A8011F910F910C9424
:102E500041120F931F930091A5011091A60120919B
:102E6000A7013091A801DC01CB0180239123A2238B
:102E7000B3238093A5019093A601A093A701B093DB
:102E8000A8011F910F910C9441120F931F93009171
:102E9000A5011091A6012091A7013091A801DC01A4
:102EA000CB0180279127A227B3278093A501909378
:102EB000A601A093A701B093A8011F910F910C94B4
:102EC00041120895292F220F920F890F982F977082
:102ED00071E001C0770F9A95EAF7869586958695F9
:102EE00025E0829FC001112450E040E0A62FB0E011
:102EF000FC01E40FF51FE056FE4F60819D01042E9A
:102F000002C0369527950A94E2F72170219526276D
:102F10002723262720834F5F5F4F4530510541F718
:102F20000895292F220F920F890F982F9770869559
:102F30008695869545E0849F9001112470E060E0BD
:102F400080E0F901E60FF71FE056FE4F408150E0A8
:102F5000092E02C0569547950A94E2F7417055270D
:102F6000062E01C0440F0A94EAF7842B6F5F7F4F4F
:102F70006530710531F70895BF92CF92DF92EF92DD
:102F8000FF920F931F93CF93DF938C01C090A50105
:102F9000D090A601E090A701F090A8018091A9012E
:102FA0009091AA01A091AB01B091AC01C82AD92A95
:102FB000EA2AFB2ACFE1D0E0BC2ED701C6010C2EB5
:102FC00004C0B695A795979587950A94D2F780FD8A
:102FD0000EC0219788F7B12C8B2DDF91CF911F91D7
:102FE0000F91FF90EF90DF90CF90BF900895B801C0
:102FF0008C2F0E94EA04019761F3EECFCF93DF9309
:10300000EC010E94BC17BE01DF91CF910C94EA0441
:103010001F93CF93DF93EB0190916701992331F0D8
:10302000CB01DF91CF911F910C94FE17882379F08B
:10303000CB010E94BC17182F682FCE010E94621787
:10304000BE01812FDF91CF911F910C94EA04CB0137
:103050000E949117182FF4CF8091AD018595859529
:10306000859508958091AD018770089598E0899FB6
:1030700090011124622B6093AD010C94A6169091DF
:10308000AD01809589238093AD01282F277061F4CD
:10309000282F082E000C330B9217130629F0859564
:1030A000859585950C94C71608959091AD019770FC
:1030B00081E009F480E00895909113019923E1F0F3
:1030C0009091200297FF18C0E82FE695E695E695C7
:1030D000EF3139F12091010130910201E20FF32F1C
:1030E000F11D877021E030E001C0220F8A95EAF7D8
:1030F0008181822B81830895209101013091020109
:10310000F90132969FEF40E05191851751F09F3FB2
:1031100019F4511101C0942F4F5F4E31A9F79F3F11
:1031200009F40895290F311D97FD3A95F90182831D
:103130000895909113019923F1F09091200297FF47
:103140001AC0E82FE695E695E695EF3129F1209132
:10315000010130910201E20FF32FF11D282F27709A
:1031600081E090E001C0880F2A95EAF7809591816F
:103170008923818308952091010130910201F90191
:103180003296205E3F4F9191891303C0DF01119762
:103190001C92E217F307B9F7089581E090E0E091FF
:1031A0000101F0910201E80FF91F108201968032AF
:1031B0009105A9F708959091D101892B8093D101B0
:1031C0000895982F90958091D10189238093D10102
:1031D00008951092D10108959091D001892B809388
:1031E000D0010895982F90958091D00189238093E4
:1031F000D00108951092D00108959091CF01892BAC
:103200008093CF010895982F90958091CF018923C5
:103210008093CF0108951092CF0108958093AE015D
:1032200008951092AE01089520910101309102019C
:10323000F9013196205E3F4F80E0919191118F5FAF
:10324000E217F307D1F70895E0910101F09102012F
:103250008091D1018083E0910101F0910201808190
:103260009091D001892B8083E0910101F0910201BE
:1032700080819091CF01892B80839091AE01992319
:1032800061F0E0910101F09102018081892B80833E
:103290000E94141981111092AE0180910101909148
:1032A00002010C94760D6DEE7EEF90E080E00E94BE
:1032B000282760E082E090E00E940A2760E083E037
:1032C00090E00E940A2760E084E090E00E940A27D4
:1032D00060E085E090E00E940A2760E086E090E0F0
:1032E0000E940A2740E050E0BA0188E090E00C9488
:1032F0001C2790E080E00E94042721E08D3E9E4F35
:1033000009F020E0822F089582E090E00C94F626E8
:10331000682F82E090E00C940A2783E090E00C9400
:10332000F626682F83E090E00C940A2784E090E072
:103330000C94F626682F84E090E00C940A2786E02F
:1033400090E00C94F626682F86E090E00C940A2713
:1033500080912702843051F11092D30188E190E0EE
:1033600020E40FB6F894A895809360000FBE2093D8
:10337000600080E00E949D0480E00E94CB0483B73F
:10338000817F846083BF83B7816083BF7894889591
:1033900083B78E7F83BF0FB6F894A89580916000A5
:1033A000886180936000109260000FBE08950895B8
:1033B00008950E94D7190E9485070E94D81980E0BD
:1033C0000E941F0891E0811107C081E00E941F0840
:1033D00091E0811101C090E0892F08950E9455125B
:1033E0000E94191E0E946A0D0C94CB041F920F922A
:1033F0000FB60F9211248F939F93AF93BF93809139
:10340000D301811113C080911C0290911D02A091E3
:103410001E02B0911F024196A11DB11D80931C0296
:1034200090931D02A0931E02B0931F02BF91AF9113
:103430009F918F910F900FBE0F901F90189582E073
:1034400084BD93E095BD9AEF97BD80936E0008957B
:103450002FB7F89480911C0290911D02A0911E023A
:10346000B0911F022FBF0895CF92DF92EF92FF928B
:103470000F931F932FB7F89440911C0250911D0297
:1034800060911E0270911F022FBF6A017B01EE2422
:10349000FF248C0130E020E0C016D106E206F306DE
:1034A00050F0481B590BCA011F910F91FF90EF90EC
:1034B000DF90CF90089541505109F3CF1F920F92A2
:1034C0000FB60F9211248F939F93AF93BF93809168
:1034D0001C0290911D02A0911E02B0911F02019644
:1034E000A11DB11D80931C0290931D02A0931E028A
:1034F000B0931F02BF91AF919F918F910F900FBE1C
:103500000F901F9018950E949C22F8942FEF87EA45
:1035100091E6215080409040E1F700C0000087E034
:1035200090EBDC018093300290933102A093320241
:10353000B093330288E19CE00FB6F894A89580938D
:1035400060000FBE90936000FFCFCF92DF92EF92AA
:10355000FF921F93CF93DF9310E0E82EF12C812F81
:103560000E941F08D0E0C0E0C82ED12CC6010C2E4E
:1035700002C0959587950A94E2F780FD11C02196C7
:10358000C330D10599F7113049F480E0DF91CF9134
:103590001F91FF90EF90DF90CF90089511E0DFCF63
:1035A0006C2F712F80E00E94CE04E816F90639F7DF
:1035B00081E0ECCFCF93C82F8CE20E94A51A88231C
:1035C00021F08C2FCF910C94A51A80E0CF91089513
:1035D000CF930E947919811102C00E945319C5E648
:1035E00008C00E9485078FE39CE90197F1F700C0AE
:1035F0000000C150B1F789E20E94DA1A8111EFC0D0
:103600008AE20E94DA1A81110E94531985E00E9411
:10361000DA1A81110E94831A0E9484198093D201C0
:1036200087E00E94DA1A882371F08BE10E94DA1A8F
:10363000882309F4B1C09091D201892F8D7F91FF29
:1036400082608093D2018091D2010E9488190E94E9
:10365000961990E0909321028093200280EE0E94C0
:10366000DA1A882341F090912002892F8E7F90FFF3
:1036700081608093200289E30E94DA1A882341F056
:1036800090912002892F8D7F91FF8260809320028C
:1036900082EE0E94DA1A882341F090912002892F4D
:1036A0008B7F92FF84608093200286EE0E94DA1A5C
:1036B000882341F090912002892F877F93FF8860B3
:1036C0008093200283EE0E94DA1A882341F09091C1
:1036D0002002892F8F7E94FF80618093200285E3F2
:1036E0000E94DA1A882341F090912002892F8F7D61
:1036F00095FF80628093200281E30E94DA1A88237A
:1037000041F090912002892F8F7B96FF80648093F7
:10371000200281E10E94DA1A882341F09091200270
:10372000892F97FB87F9805880932002809120028F
:103730000E949A1987E20E94DA1AC82F8EE10E942D
:10374000DA1A8111C2608FE10E94DA1A8111C46015
:1037500080E20E94DA1A8111C86081E20E94DA1ABE
:103760008111C06182E20E94DA1A8111C06283E293
:103770000E94DA1A8111C06484E20E94DA1A882356
:1037800041F1C0688C2F0E9491196C2F70E090E07D
:1037900080E0CF910C9429168EE00E94DA1A8823DB
:1037A00039F09091D201892F8B7F92FF846049CFAD
:1037B00080E10E94DA1A9091D201882329F0892FA2
:1037C000877F93FF88603DCF892F8E7F90FF816038
:1037D00038CFC111D7CF0E948D19682FD7CFCF9185
:1037E00008958091D60180FF12C06091060185E0A6
:1037F000689FB00111247595679575956795603838
:103800007105A8F561157105A1F1862F089581FF55
:1038100009C06091060185E0689FB001112475958B
:103820006795EDCF82FF07C06091060185E0689F34
:10383000B0011124E4CF2091D7012223A9F0909167
:1038400005016091060185E0689FB00111242917E8
:10385000B0F6269FA001279F500D1124692F70E01C
:10386000CA010E94DC26CBCF65E070E0CECF8FE7A7
:10387000089581E008958091D60180FF0CC0609189
:10388000040170E0759567957595679561157105EB
:1038900049F1862F089581FF06C06091040170E010
:1038A00075956795F3CF6091040182FD0BC09091EF
:1038B000D7019923A1F0609103018091040196172B
:1038C00038F0682F70E06038710500F38FE70895D5
:1038D000899FC001112470E00E94DC26F4CF61E0D2
:1038E00070E0D7CF81E00895803F31F40E94F11B52
:1038F00081958093DA010895813F19F40E94F11BAC
:10390000F8CF823F31F40E94F11B81958093D90159
:103910000895833F19F40E94F11BF8CF893F29F4E1
:103920000E943B1C8093DB0108958A3F21F40E9492
:103930003B1C8195F7CF8B3F31F40E943B1C819556
:103940008093DC0108958C3F19F40E943B1CF8CF52
:10395000843F31F48091D80181608093D80108952B
:10396000853F21F48091D8018260F7CF863F21F412
:103970008091D8018460F1CF873F21F48091D801F4
:103980008860EBCF883F21F48091D8018061E5CF3A
:103990008D3F31F48091D60181608093D6010895E6
:1039A0008E3F21F48091D6018260F7CF8F3FB9F727
:1039B0008091D6018460F1CF803FC1F48091DA011B
:1039C00087FD1092DA018091D90181110EC080919A
:1039D000DA0181110AC08091DB01811106C080915A
:1039E000DC01811102C01092D7010895813F29F4B2
:1039F0008091DA0118162CF3E6CF9091D901823F1D
:103A000029F497FFE0CF1092D901DDCF833F19F45D
:103A10001916CCF3D8CF893F39F48091DB01181601
:103A200094F61092DB01CFCF8A3F29F48091DB011D
:103A300087FFC9CFF6CF8B3F39F48091DC0187FF38
:103A4000C2CF1092DC01BFCF8C3F29F48091DC0102
:103A50001816BCF3B8CF843F31F48091D8018E7F23
:103A60008093D801B0CF853F21F48091D8018D7F1C
:103A7000F7CF863F21F48091D8018B7FF1CF873F2C
:103A800021F48091D801877FEBCF883F21F480918A
:103A9000D8018F7EE5CF8D3F31F48091D6018E7FA6
:103AA0008093D60190CF8E3F21F48091D6018D7FF7
:103AB000F7CF8F3F09F087CF8091D6018B7FF0CF72
:103AC00088ED91E00E94810D0E94281A9093D50103
:103AD0008093D40108951F93CF93DF938091D401F5
:103AE0009091D5010E94341AAC019091D701209198
:103AF000070130E0911106C0209108018AE0289F5B
:103B0000900111244217530780F08091D901C09190
:103B1000DA011091DB01D091DC0181110AC0C111E1
:103B200078C0111176C0D11174C0DF91CF911F916F
:103B300008959F3F19F09F5F9093D701181624F4C2
:103B40000E94F11B8093D9018091D90187FF05C0A4
:103B50000E94F11B81958093D9011C1624F40E94C8
:103B6000F11B8093DA018091DA0187FF05C00E9482
:103B7000F11B81958093DA016091D901662331F1BF
:103B8000C091DA01CC2311F1062E000C770B880BC3
:103B9000990B0E94CF2523E333E343E35FE30E94C5
:103BA00033260E9497256093D9016C2FCC0F770B99
:103BB000880B990B0E94CF2523E333E343E35FE3B4
:103BC0000E9433260E9497256093DA01111624F48F
:103BD0000E943B1C8093DB018091DB0187FF05C0C5
:103BE0000E943B1C81958093DB011D1624F40E94EA
:103BF0003B1C8093DC018091DC0187FF05C00E94A3
:103C00003B1C81958093DC01DF91CF911F910C9437
:103C1000601D9F3F09F08FCFA0CF85E0E8EDF1E078
:103C2000DF011D928A95E9F71092D7011092D60113
:103C300008950E947919811102C00E9453190E94AF
:103C40009F198093220280FF03C086950C949D04E7
:103C500080E0FCCF80912202982F9695933030F42B
:103C60009F5F990F8170892B80932202809122029D
:103C70008160809322020E94A3198091220286957E
:103C80000C949D0480912202982F9E7F79F082509F
:103C9000809322028E7F91E009F490E080912202CD
:103CA00090FB80F9809322020E94A3198091220246
:103CB00086950C949D0490912202892F8E7F90FF0F
:103CC0008160809322020E94A3198091220280FFCA
:103CD00003C086950C949D0480E0FCCF9091220255
:103CE000892F86958F5F8F7791708430B8F4880F15
:103CF000892B80932202809122028E7F91E009F429
:103D000090E08091220290FB80F9809322020E9431
:103D1000A3198091220286950C949D04909322020F
:103D2000EACF90912202292F26958227880F917041
:103D3000982B909322029E7F21E009F420E080914D
:103D4000220220FB80F9809322020E94A319809115
:103D5000220286950C949D048091FD010895CF93D5
:103D6000DF9300D01F92CDB7DEB79C018091270270
:103D7000843019F593E099833B832A839093E9007B
:103D80008FEF9091E800815095FD06C095ED9A95D2
:103D9000F1F700008111F5CF8091E80085FF0DC09B
:103DA00050E040E063E070E0CE0101960E940C21FB
:103DB0008091E8008E778093E8000F900F900F902D
:103DC000DF91CF910895CF93DF9300D01F92CDB7AD
:103DD000DEB720912702243031F522E02983805874
:103DE00091099B838A8383E08093E9008FEF909110
:103DF000E800815095FD06C095ED9A95F1F7000019
:103E00008111F5CF8091E80085FF0DC050E040E0C2
:103E100063E070E0CE0101960E940C218091E800E1
:103E20008E778093E8000F900F900F90DF91CF91E5
:103E300008959C01809127028430F9F482E08093F8
:103E4000E9009FEF8091E800915085FD06C085ED67
:103E50008A95F1F700009111F5CF8091E80085FF78
:103E60000CC050E040E065E070E0C9010E940C2108
:103E70008091E8008E778093E8000895CF93DF93D8
:103E8000EC01809127028430F1F490911301992381
:103E9000E9F09091200297FF19C08093E9008FEF1D
:103EA0009091E800815095FD06C095E19A95F1F753
:103EB00000008111F5CF8091E80050E040E060E221
:103EC00070E085FD1AC0DF91CF91089581E0809365
:103ED000E9008FEF9091E800815095FD06C095EDC7
:103EE0009A95F1F700008111F5CF8091E80085FFE8
:103EF000EACF50E040E068E070E0CE010E940C2183
:103F00008091E8008E778093E80080E2FE01ADEDBD
:103F1000B1E001900D928A95E1F7D5CF809126020C
:103F2000811109C00E949C220E94F9228091E20026
:103F300084608093E2000895109226020895089507
:103F400008950C94EE1942E061EC81E00E941A227F
:103F500042E061EC82E00E941A2242E061EC83E0E0
:103F60000E941A2242E261EC84E00C941A228091B1
:103F70002902833009F455C030F4813071F1823068
:103F800009F491C008958A3009F47DC08B3009F49A
:103F900063C0893009F044C080912802813209F061
:103FA0003FC080912C0290912D02009711F0039751
:103FB000B9F58091E800877F8093E8008091E80060
:103FC00082FF2AC08091F1008093FD018091E8007A
:103FD0008B778093E8000C944E2280912802813ADE
:103FE000F9F48091E800877F8093E80080912C02AB
:103FF00090912D02892B61F460E28DED91E070E0EB
:104000000E945B218091E8008B778093E8000895FF
:1040100060E090E080E0F3CF809127028111CECF65
:10402000089580912802813AD9F780912C029091CD
:104030002D02892BA9F78091E800877F8093E80003
:104040008091E80080FFFCCF809113018093F10004
:104050008091E8008E77BDCF80912802813201F7F0
:1040600080912C0290912D02892BD1F68091E8004D
:10407000877F8093E8000E944E2280912A028093DD
:1040800013010C94551280912802813249F68091D7
:10409000E800877F8093E8000E944E2280912B02E7
:1040A0008093FE01089580912802813A09F0B8CFEB
:1040B0008091E800877F8093E8008091E80080FF8E
:1040C000FCCF8091FE01C2CF84B7877F84BF0FB63B
:1040D000F894A895809160008861809360001092A8
:1040E00060000FBE80E880936100109261000E9422
:1040F000B90D0E949C220E94F9228091E200846006
:104100008093E20078940E947B250E94BB0D89E099
:1041100091E00E94650D80912702853029F00E9470
:10412000C50D0E94320DF7CF0E94A819809125027B
:10413000882389F30E94D919882369F30E94F62005
:10414000EACF292F33272330310579F158F4213074
:104150003105F1F02230310519F190E080E030E0D6
:1041600020E01AC02132310599F122323105A9F738
:10417000643098F770E0FB01EE0FFF1FE35EFE4F27
:1041800020813181675E7E4FFB01808190E004C019
:1041900082E190E026E134E0FA0131832083089542
:1041A0008DE690E029EA33E0F7CF99278130910539
:1041B00061F028F0029789F6E9E7F3E002C0E5EA4A
:1041C000F3E0849190E09F01E7CFEDE8F3E0F9CFD1
:1041D000643008F0C2CFE62FF0E0EE0FFF1FEB5D7A
:1041E000FE4F2081318189E090E0D6CF80E189BD0A
:1041F00082E189BD09B400FEFDCF8091D8008F7D9A
:104200008093D8008091E00082608093E0008091EC
:10421000E00081FDFCCF0895AF92BF92CF92DF9274
:10422000FF920F931F93CF93DF936C01EB018A01F1
:104230000E946D22F82E811123C00115110539F05D
:10424000F80180819181C81BD90BC80ED91EB12CF1
:10425000A12C2097A9F08091E80085FD22C08091D3
:10426000E8008E778093E80001151105A1F0F801B0
:1042700080819181A80EB91EB182A08285E0F82EBE
:104280008F2DDF91CF911F910F91FF90DF90CF90F5
:10429000BF90AF9008950E946D228823D1F2F82E2E
:1042A000EFCFF60181916F018093F1002197FFEF2D
:1042B000AF1ABF0ACECFFC0180912E0290912F023F
:1042C00086179707A0F06115710529F49091E80011
:1042D0009E779093E80090E06115710551F491117B
:1042E00008C08091E80082FF35C080E00895BC01DD
:1042F000F2CF809127028823C9F18530C9F18091DE
:10430000E80083FD31C08091E80082FDEACF809112
:10431000E80080FFE1CF2091F3008091F200322F7E
:10432000282F6115710519F02830310558F091E0FA
:104330002830310509F090E02091E8002E77209395
:10434000E800CACF81918093F100615071092F5F1D
:104350003F4FE7CF80912702882341F0853041F01D
:104360008091E80083FFBDCF81E0089582E0089549
:1043700083E00895FC0180912E0290912F02861710
:104380009707A0F06115710529F48091E8008E77F8
:104390008093E80090E06115710551F4911108C017
:1043A0008091E80082FF36C080E00895BC01F2CF22
:1043B000809127028823D1F18530D1F18091E800E6
:1043C00083FD32C08091E80082FDEACF8091E80051
:1043D00080FFE1CF2091F3008091F200322F282F4F
:1043E0006115710519F02830310558F091E0283039
:1043F000310509F090E08091E8008E778093E80025
:10440000CACF84918093F1003196615071092F5F7A
:104410003F4FE6CF80912702882341F0853041F05D
:104420008091E80083FFBCCF81E0089582E0089589
:1044300083E00895982F973028F08F708093E900DB
:1044400081E008959093E900242F762F50E098178B
:1044500031F07091EC002091ED005091F00021FDC1
:1044600002C09F5FE8CF3091EB003E7F3093EB00BE
:104470003091ED003D7F3093ED003091EB003160E5
:104480003093EB007093EC002093ED005093F0001C
:104490002091EE0027FDE5CF80E00895809128026D
:1044A00087FF13C08091E80082FF06C08091E8007A
:1044B0008B778093E80004C0809127028111F2CFAE
:1044C0000895809127028823D9F38091E80080FF26
:1044D000F8CF8091E8008E77ECCF2091E400309106
:1044E000E50085E69091EC0090FF06C09091E80011
:1044F00090FF06C080E008959091E80092FDFACF09
:1045000090912702992391F0953091F09091EB00D2
:1045100095FD10C04091E4005091E5002417350747
:1045200009F381509A01F1F684E0089582E008953C
:1045300083E0089581E008950E940A230E941223D7
:10454000E0EEF0E0808181608083E8EDF0E0808142
:104550008F77808319BCA7EDB0E08C918E7F8C9310
:1045600080818F7E80831092260208950F931F937F
:10457000CF93DF930E940A230E941223C8EDD0E05C
:1045800088818F77888388818068888388818F7D00
:10459000888319BC109227021092230210922502E0
:1045A0001092240200EE10E0F80180818B7F80835E
:1045B00088818160888342E060E080E00E941A2266
:1045C000E1EEF0E080818E7F8083E2EEF0E080819A
:1045D00081608083808188608083F80180818E7F04
:1045E0008083888180618883DF91CF911F910F91B3
:1045F0000895E8EDF0E080818F7E8083E7EDF0E0C4
:1046000080818160808384E082BF81E08093260284
:104610000C94B622E8EDF0E080818E7F80831092CA
:10462000E20008951092DA001092E10008951F92BE
:104630000F920FB60F9211242F933F934F935F93D6
:104640006F937F938F939F93AF93BF93EF93FF935A
:104650008091E10082FF0BC08091E20082FF07C0E1
:104660008091E1008B7F8093E1000E947A25809108
:10467000DA0080FF19C08091D80080FF15C08091BA
:10468000DA008E7F8093DA008091D90080FF94C099
:1046900080E189BD82E189BD09B400FEFDCF81E0E2
:1046A000809327020E948E1F8091E10080FF19C035
:1046B0008091E20080FF15C08091E2008E7F8093A0
:1046C000E2008091E20080618093E2008091D80056
:1046D00080628093D80019BC85E0809327020E94F5
:1046E000A01F8091E10084FF29C08091E20084FF37
:1046F00025C080E189BD82E189BD09B400FEFDCFFE
:104700008091D8008F7D8093D8008091E1008F7ECA
:104710008093E1008091E2008F7E8093E20080919F
:10472000E20081608093E20080912302882309F4F3
:1047300049C084E0809327020E94A11F8091E1007C
:1047400083FF29C08091E20083FF25C08091E100B2
:10475000877F8093E10082E08093270210922302FA
:104760008091E1008E7F8093E1008091E2008E7F56
:104770008093E2008091E20080618093E20042E059
:1047800060E080E00E941A228091F00088608093AF
:10479000F0000E949F1FFF91EF91BF91AF919F91F9
:1047A0008F917F916F915F914F913F912F910F90DA
:1047B0000FBE0F901F90189519BC109227020E94EF
:1047C0009C1F72CF8091E30087FD02C081E0B2CFD1
:1047D00083E0B0CF1F920F920FB60F9211242F9348
:1047E0003F934F935F936F937F938F939F93AF9379
:1047F000BF93CF93EF93FF93C091E900CF70809167
:10480000EC001092E9008091F000877F8093F00027
:1048100078940E9426241092E9008091F00088602C
:104820008093F000C093E900FF91EF91CF91BF9189
:10483000AF919F918F917F916F915F914F913F9138
:104840002F910F900FBE0F901F9018951F93CF932D
:10485000DF93CDB7DEB7AA970FB6F894DEBF0FBED1
:10486000CDBFE8E2F2E08091F100819322E0E033F5
:10487000F207C9F70E94B71F8091E80083FF42C08A
:1048800080912802909129029A3008F03BC0E92FCC
:10489000F0E0E35BFB4D0C94F02657247B2482244C
:1048A0007B248224D624F82482244D255A2580385E
:1048B00079F0823839F580912C028F708093E9006D
:1048C0008091EB0085FB882780F91092E90006C0F3
:1048D0008091240290912502911182609091E800CC
:1048E000977F9093E8008093F1001092F1008091FF
:1048F000E8008E772DC0282F2D7F21F48823D1F05A
:10490000823059F18091E80083FF0AC08091E8006D
:10491000877F8093E8008091EB0080628093EB00BA
:10492000AA960FB6F894DEBF0FBECDBFDF91CF9130
:104930001F91089580912A02813021F7933009F068
:1049400080E0809325021092E9008091E800877F43
:104950008093E8000E944E22D5CF80912A028111D7
:10496000F2CF80912C028F7069F28093E900209140
:10497000EB0020FFE8CF933031F48091EB008062B0
:104980008093EB00E0CF9091EB0090619093EB006F
:1049900021E030E001C0220F8A95EAF72093EA0077
:1049A0001092EA008091EB008860EACF8111AACFD3
:1049B00010912A021F778091E3008078812B8093E9
:1049C000E3008091E800877F8093E8000E944E22F8
:1049D0008091E80080FFFCCF8091E30080688093A5
:1049E000E30083E0111101C082E0809327028ACFA7
:1049F0008058823008F086CF80912A0290912B0255
:104A00008C3D23E09207A1F583E08A838AE28983C3
:104A10004FB7F894DE01139620E03EE051E2E32F19
:104A2000F0E050935700E49120FF03C0E295EF704F
:104A30003F5FEF708E2F90E0EA30C0F0C7968D9305
:104A40009D932F5F243159F74FBF8091E800877FF6
:104A50008093E8006AE270E0CE0101960E945B213B
:104A60008091E8008B778093E8004CCFC096E7CF29
:104A7000AE014F5F5F4F60912C020E94A120BC01EC
:104A8000892B09F43FCF9091E800977F9093E8003D
:104A900089819A810E94BA21E3CF803809F032CF10
:104AA0008091E800877F8093E800809123028093C3
:104AB000F1001DCF811126CF90912A02923008F08B
:104AC00021CF8091E800877F8093E80090932302B4
:104AD0000E944E2280912302882331F084E080934B
:104AE00027020E94A31F0ECF8091E30087FDF6CF1F
:104AF00081E0F5CF0895CF9380912702882399F024
:104B0000C091E900CF708091EC0080FD0EC080E084
:104B1000C82B1092E9008091E80083FD0E942624B2
:104B2000CF70C093E900CF91089580E8F1CF0E9443
:104B30009E256894B1110C942D2608950E9412268A
:104B400088F09F5798F0B92F9927B751B0F0E1F04E
:104B5000660F771F881F991F1AF0BA95C9F714C0FE
:104B6000B13091F00E942C26B1E008950C942C26CF
:104B7000672F782F8827B85F39F0B93FCCF3869537
:104B800077956795B395D9F73EF490958095709594
:104B900061957F4F8F4F9F4F0895E89409C097FB11
:104BA0003EF490958095709561957F4F8F4F9F4F04
:104BB0009923A9F0F92F96E9BB279395F695879548
:104BC00077956795B795F111F8CFFAF4BB0F11F40B
:104BD00060FF1BC06F5F7F4F8F4F9F4F16C08823B2
:104BE00011F096E911C0772321F09EE8872F762FE8
:104BF00005C0662371F096E8862F70E060E02AF029
:104C00009A95660F771F881FDAF7880F9695879514
:104C100097F9089557FD9058440F551F59F05F3F7D
:104C200071F04795880F97FB991F61F09F3F79F0CE
:104C300087950895121613061406551FF2CF469550
:104C4000F1DF08C0161617061806991FF1CF8695D2
:104C50007105610508940895E894BB2766277727B6
:104C6000CB0197F908950E9446260C94B7260E941E
:104C7000A92638F00E94B02620F0952311F00C945C
:104C8000A0260C94A62611240C942D260E940A26F8
:104C900070F3959FC1F3950F50E0551F629FF0018F
:104CA000729FBB27F00DB11D639FAA27F00DB11DA8
:104CB000AA1F649F6627B00DA11D661F829F222731
:104CC000B00DA11D621F739FB00DA11D621F839FB8
:104CD000A00D611D221F749F3327A00D611D231F8E
:104CE000849F600D211D822F762F6A2F11249F57DC
:104CF00050409AF0F1F088234AF0EE0FFF1FBB1FDF
:104D0000661F771F881F91505040A9F79E3F51059D
:104D100080F00C94A0260C942D265F3FE4F3983E7F
:104D2000D4F3869577956795B795F795E7959F5F47
:104D3000C1F7FE2B880F911D9695879597F90895D9
:104D400097F99F6780E870E060E008959FEF80EC3E
:104D5000089500240A9416161706180609060895E1
:104D600000240A9412161306140605060895092E47
:104D70000394000C11F4882352F0BB0F40F4BF2BB6
:104D800011F460FF04C06F5F7F4F8F4F9F4F0895F6
:104D9000AA1BBB1B51E107C0AA1FBB1FA617B70761
:104DA00010F0A61BB70B881F991F5A95A9F780957D
:104DB0009095BC01CD01089597FB072E16F4009441
:104DC00007D077FD09D00E94C82607FC05D03EF425
:104DD000909581959F4F0895709561957F4F0895A7
:104DE000EE0FFF1F0590F491E02D0994F999FECF85
:104DF00092BD81BDF89A992780B50895A6E1B0E0EB
:104E000044E050E00C943027A8E1B0E042E050E0EC
:104E10000C943027262FF999FECF92BD81BDF89AC8
:104E2000019700B4021639F01FBA20BD0FB6F894EE
:104E3000FA9AF99A0FBE08950396272F0E940B271E
:104E40000E940A27252F0E940B27242F0C940B2742
:104E50000196272F0E940B270C940A27DC01CB0117
:104E6000FC01F999FECF06C0F2BDE1BDF89A31967A
:104E700000B40D9241505040B8F70895F894FFCF18
:104E8000FFAF012808140A321EAC1E3E1F191FE393
:104E90001EAF1E019392919094404D3639E40497D1
:0E4EA0000461042804BB03D403ED03060400E0
:00000001FF
